:100000000C9400020C9431020C9431020C943102D5
:100010000C9431020C9431020C9431020C94310294
:100020000C9431020C94A3110C94A3110C94A31101
:100030000C9431020C9465120C9431020C94310230
:100040000C9431020C9437120C9431020C9431024E
:100050000C9431020C9431020C9431020C94351042
:100060000C9431020C940B100C94E10F0C9431029F
:100070000C9431020C9431020C9431020C94310234
:100080000C9409120C9431020C9431020C9431023C
:100090000C9431020C9431020C9431020C947F10B8
:1000A0000C9431020C9431020C94DB110C9431024B
:1000B0000C9431020C9431020C9431020C94AD1169
:1000C0000C9431020C9431020C9431020C94B70F51
:1000D0000C948D0F0C9431020C94630F0C94390F17
:1000E0000C943102084AD73B3BCE016E84BCBFFD65
:1000F000C12F3D6C74319ABD56833DDA3D00C77FF8
:1001000011BED9E4BB4C3E916BAAAABE0000008090
:100110003F000C94B7030C946A080C949C140C9444
:1001200086030C94D6040C94D3090C9440030C94CD
:1001300023060C9403040C9474060C949C060C94F3
:10014000DC040C94321F0C94EA040C9402060C9408
:100150003D030C9451060C946A060C9492060C9480
:10016000F2040C945A080C9435060C94E0040C9498
:10017000C5040C94C9040C94BD040C94F8040C94AC
:100180007D080C940F060C94EE040C94FC040C9463
:1001900088060C9495030C9419060C940A060C948A
:1001A000E4040C94A9030C94B7040C943E030C943F
:1001B0005E020C94F7040C945B080C94C1040C943C
:1001C000AA080C945B060C942D060C9450040C9415
:1001D000CC040C9447060C947E060C943D060C94BB
:1001E000D20400407A10F35A00A0724E1809001091
:1001F000A5D4E80000E87648170000E40B5402009C
:1002000000CA9A3B000000E1F505000080969800C6
:10021000000040420F000000A086010000001027EF
:1002200000000000E803000000006400000000007F
:100230000A00000000000100000000002C76D888B1
:10024000DC674F0823DFC1DFAE59E1B1B796E5E3C4
:10025000E453C63AE651997696E8E6C28426EB89DD
:100260008C9B62ED407C6FFCEFBC9C9F40F2BAA57A
:100270006FA5F490055A2AF75C936B6CF9676DC112
:100280001BFCE0E40D47FEF520E6B500D0ED902E16
:100290000300943577050080841E080000204E0A74
:1002A000000000C80C333333330F986E12831141B2
:1002B000EF8D2114893BE65516CFFEE6DB18D1847D
:1002C0004B381BF77C1D901DA4BBE42420328472A4
:1002D0005E228100C9F124ECA1E53D270000210048
:1002E000240027002A002D00300033000101000007
:1002F000040107010A0100000A0B02090C0D0E0897
:1003000007030401000000000000000000000000DE
:1003100000000000000000000000000000000000DD
:10032000000012111000000000000000000000009A
:10033000000000000000000000000000000022009B
:10034000250028002B002E0031003400020100009F
:10035000050108010B0100002000230026002900F0
:100360002C002F00320000010000030106010901EA
:1003700005050505070508080808020202020A0A21
:10038000080804040404010101010101010103033F
:10039000030303030303040707070C0C0C0C0C0CEA
:1003A0000C0C0202020206060606060606060B0BE7
:1003B0000B0B0B0B0B0B0102102020080810204028
:1003C0001020408002010201080402010102040819
:1003D00010204080804020100804020180040201A7
:1003E00080402010080402010804020101020408F0
:1003F0001020408001020408102040809C14321F0D
:1004000011241FBECFEFD1E2DEBFCDBF00E00CBF95
:1004100013E0A0E0B2E0E8E0F1E500E00BBF02C0CD
:1004200007900D92AE30B107D9F729E0AEE0B3E006
:1004300001C01D92AE3BB207E1F711E0CFEFD1E072
:1004400000E006C021970109802FFE010E94F225DD
:10045000CE3FD10780E00807A9F70E9456160C94FA
:1004600072280C94000090E0F0E0E0E020918E080B
:1004700030918F08E217F307F8F4E2171306C8F477
:10048000292F30E0A0919008B0919108A20FB31FDE
:100490006C93A0919008B0919108A20FB31F119690
:1004A0008C93A0919008B0919108A20FB31F12965F
:1004B0004C9331969D5FDACF81E008958091D80406
:1004C0009091D704891B990B0895982F862F642F3C
:1004D000911103C0422F0C943302915040918E0829
:1004E00050918F0894171506D0F4E92FEE0FE90FFD
:1004F000F0E0A0919008B0919108AE0FBF1F6C93EF
:10050000A0919008B0919108AE0FBF1F11968C93E7
:100510008091900890919108E80FF91F228380E064
:100520000895CF92DF92EF92FF920F931F93CF9394
:10053000DF9328E030E041E06FEF70E09FE0C92EEC
:10054000D12CC3E2D0E007ED10E090912D08E091AE
:100550002E08F0912F08F92EF094582F542309F407
:100560003DC0F89452815F2152835181592B5183B0
:10057000DE011197F1F75281952B92837894F8015F
:100580003197F1F7440F21503109F9F6F894E091D1
:100590002E08F0912F08918180912D088095892354
:1005A0008183E0912E08F0912F08828190912D088F
:1005B000892B8283E0912E08F0912F0892818091FF
:1005C0002D088095892382837894DF91CF911F91A4
:1005D0000F91FF90EF90DF90CF900895F8945281A3
:1005E0005F2152835181592B5183DB011197F1F720
:1005F0005281952B92837894F601C2CF80912D0879
:10060000E0912E08F0912F08F8949181282F2095E1
:10061000922391839281982B928378943DE743E0D3
:1006200050E0315041F1DA011197F1F790819823B0
:10063000C1F3F8949281922392839181982B9183B4
:100640007894ABE7B7E01197F1F7F8949181922392
:1006500091839281982B9283A3E1B1E01197F1F7F6
:100660009081982381E009F080E07894E3E6F6E059
:100670003197F1F7089580E0089508950895089559
:10068000AF92BF92CF92DF92EF92FF920F931F93A0
:10069000CF93DF936C017B018B01040F151FEB01DE
:1006A0005E01AE18BF08C017D10759F06991D60195
:1006B000ED91FC910190F081E02DC6011995892BF7
:1006C00079F7C501DF91CF911F910F91FF90EF90C6
:1006D000DF90CF90BF90AF900895FC01A089B189C1
:1006E0008C91A689B78982FD0FC09C91818D8F5F07
:1006F0008F73228D821749F0A18DAE0FBF2FB11DD0
:100700005D969C93818F08958C910895FC01538D83
:10071000448D252F30E0842F90E0821B930B5417DB
:1007200010F0CF96089501970895FC01918D828D68
:10073000981761F0A28DAE0FBF2FB11D5D968C9101
:10074000928D9F5F9F73928F90E008958FEF9FEF40
:100750000895FC01918D828D981731F0828DE80FFC
:10076000F11D858D90E008958FEF9FEF0895FC01B6
:10077000918D228D892F90E0805C9F4F821B910983
:100780008F739927089589E295E00E94B70321E0CD
:10079000892B09F420E0822F089586EC95E00E94D1
:1007A000B70321E0892B09F420E0822F089583E626
:1007B00096E00E94B70321E0892B09F420E0822F04
:1007C0000895FC01A48DA80FB92FB11DA35ABF4FE6
:1007D0002C91848D90E001968F739927848FA68940
:1007E000B7892C93A089B1898C91837080648C9394
:1007F000938D848D981306C00288F389E02D808143
:100800008F7D80830895EF92FF920F931F93CF9374
:10081000DF93EC0181E0888F9B8D8C8D98131AC03B
:10082000E889F989808185FF15C09FB7F894EE8922
:10083000FF896083E889F98980818370806480837F
:100840009FBF81E090E0DF91CF911F910F91FF90CA
:10085000EF900895F62E0B8D10E00F5F1F4F0F7372
:100860001127E02E8C8D8E110CC00FB607FCFACF2D
:10087000E889F989808185FFF5CFCE010E94E103E7
:10088000F1CFEB8DEC0FFD2FF11DE35AFF4FF082FE
:100890009FB7F8940B8FEA89FB8980818062CFCF64
:1008A000CF93DF93EC01888D8823B9F0AA89BB89A7
:1008B000E889F9898C9185FD03C0808186FD0DC092
:1008C0000FB607FCF7CF8C9185FFF2CF808185FFB3
:1008D000EDCFCE010E94E103E9CFDF91CF910895E2
:1008E00080E090E0892B29F00E94D70381110E94BB
:1008F000000080E090E0892B49F080E090E0892BB7
:1009000029F00E94000081110E94000080E090E028
:10091000892B29F00E94CD0381110E94000080E004
:1009200090E0892B29F00E94C30381110C940000F0
:1009300008958150823108F05AC0E82FF0E08827EE
:10094000EB55FB4F8F4F0C94F225C504C904B70437
:10095000BD04C104F704CC04D204D604DC04E004D2
:10096000E404EA04EE04F704F204F804FC048091C1
:1009700080008F77809380000895809180008F7D24
:10098000F9CF80918000877FF5CF84B58F7784BDC4
:10099000089584B58F7DFBCF8091B0008F778093D1
:1009A000B00008958091B0008F7DF9CF80919000C4
:1009B0008F77809390000895809190008F7DF9CF7C
:1009C00080919000877FF5CF8091A0008F778093F2
:1009D000A00008958091A0008F7DF9CF8091A000A4
:1009E000877FF5CF809120018F7780932001089534
:1009F000809120018F7DF9CF80912001877FF5CFF5
:100A0000CF93DF93282F30E0F901EA50FD4F849116
:100A1000F901EA54FC4FD491F901E059FC4FC4911B
:100A2000CC23A1F081110E949904EC2FF0E0EE0F8D
:100A3000FF1FEA5AFC4FA591B491EC91ED2381E0A0
:100A400090E009F480E0DF91CF91089580E090E09C
:100A5000FACF1F93CF93DF93282F30E0F901EA50AC
:100A6000FD4F8491F901EA54FC4FD491F901E0590A
:100A7000FC4FC491CC23A9F0162F81110E94990438
:100A8000EC2FF0E0EE0FFF1FE45CFC4FA591B4915A
:100A90008FB7F894EC91111108C0D095DE23DC9348
:100AA0008FBFDF91CF911F910895DE2BF8CFCF93A9
:100AB000DF9390E0FC01EA54FC4F249180599C4F55
:100AC000FC0184918823C9F090E0880F991FFC01F4
:100AD000E452FD4FA591B491FC01E45CFC4FC5913B
:100AE000D49161110DC09FB7F8948C912095822309
:100AF0008C938881282328839FBFDF91CF9108950D
:100B0000623051F49FB7F8943C91822F80958323F3
:100B10008C93E8812E2BEFCF8FB7F894EC912E2B8E
:100B20002C938FBFEACFCF93DF9360E080911508BD
:100B30000E945705809115080E940005EC0160E0B5
:100B4000809116080E945705809116080E940005A2
:100B5000AC0121E030E0CD2B11F430E020E0220F99
:100B6000331F81E0452B09F480E0822BDF91CF9188
:100B700008951F93CF93DF93182FCBE1D8E061E066
:100B800089810E945705612F8981DF91CF911F9143
:100B90000C9429051F93CF93DF93182FEB0161E08D
:100BA0000E945705209739F460E0812FDF91CF91A3
:100BB0001F910C942905CF3FD10511F461E0F5CFC9
:100BC000E12FF0E0EA50FD4FE491E150E23108F00E
:100BD000B3C0F0E08827E051FA4F8F4F0C94F22514
:100BE00002060A060F06190623069C062D06350680
:100BF0003D06470651065B066A0674069C067E069D
:100C00008806920684B5806884BDC7BDDF91CF9108
:100C10001F91089584B5806284BDC8BDF7CF8091CF
:100C20008000806880938000D0938900C093880002
:100C3000EDCF80918000806280938000D0938B0004
:100C4000C0938A00E3CF8091800088608093800009
:100C5000D0938D00C0938C00D9CF8091B000806874
:100C60008093B000C093B300D1CF8091B000806278
:100C70008093B000C093B400C9CF80919000806889
:100C800080939000D0939900C0939800BFCF80913B
:100C90009000806280939000D0939B00C0939A0054
:100CA000B5CF80919000886080939000D0939D0094
:100CB000C0939C00ABCF8091A00080688093A0007F
:100CC0008091A0008F7B8093A000D093A900C09357
:100CD000A8009CCF8091A00080628093A000D09358
:100CE000AB00C093AA0092CF8091A000886080934F
:100CF000A000D093AD00C093AC0088CF80912001BC
:100D0000806880932001D0932901C09328017ECF71
:100D100080912001806280932001D0932B01C093A9
:100D20002A0174CF80912001886080932001D093A4
:100D30002D01C0932C016ACFC038D1050CF03ECFF5
:100D400033CF3FB7F89480916A0490916B04A091DF
:100D50006C04B0916D0426B5A89B05C02F3F19F017
:100D60000196A11DB11D3FBFBA2FA92F982F88272B
:100D7000BC01CD01620F711D811D911D42E0660F06
:100D8000771F881F991F4A95D1F708958F929F92D8
:100D9000AF92BF92CF92DF92EF92FF924B015C0134
:100DA0000E94A1066B017C010E94A1066C197D09BD
:100DB0008E099F09683E734081059105A8F321E0E3
:100DC000821A9108A108B10888EEC80E83E0D81EE7
:100DD000E11CF11C81149104A104B10429F7FF90D6
:100DE000EF90DF90CF90BF90AF909F908F9008953D
:100DF0002FB7F8946091660470916704809168043D
:100E0000909169042FBF089520914204260F332743
:100E1000331F21323105ECF42091FF04FC0190E0F6
:100E200080E0243069F082E00895A091420421918D
:100E3000AC014E5D5B4FA40FB52FB11D2C930196F5
:100E4000861798F380914204680F6093420480E013
:100E5000089581E008951092FF0481E08093FE04DC
:100E60001092D90461E084E10E94290561E085E1E6
:100E70000E942905E9EBF0E080818E7F80838081EC
:100E80008D7F808388E48093B80085E48093BC00E4
:100E90000895CF93DF9391E0909321048823B9F0D4
:100EA000C091B800D091BA008091BC008A7B809339
:100EB000BC0060E084E10E94290560E085E10E94B9
:100EC00029050E942B07D093BA00C093B800DF9188
:100ED000CF9108958F929F92AF92BF92CF92DF925F
:100EE000EF92FF920F931F93CF93DF93D09128053A
:100EF000D13208F0D7C0182FC09127050E94A10653
:100F00006B017C018091FF0481116BC082E08093B2
:100F1000FF041093FE048FEF8093FD041092FC04F5
:100F2000D093FB04A7E0B5E0EBEDF4E080E0D8134C
:100F300091C01092DA048091DA04CC0FC82BC093D0
:100F4000DA048091D904813009F088C01092D90464
:100F50000E94A1066B017C018091DA048093BB00A2
:100F60008091010590910205A0910305B0910405BF
:100F7000892B8A2B8B2BA1F00E94A10600910105E1
:100F80001091020520910305309104056C197D092B
:100F90008E099F09061717072807390708F442C06A
:100FA0008091BC0083FDD8CF85EC8093BC000E946B
:100FB000A1066B017C018091FF04823009F450C0CE
:100FC0008091FD048F3F09F46FC08091FD04803251
:100FD00009F46CC08091FD04803309F469C084E099
:100FE00026C08091010590910205A0910305B09162
:100FF0000405892B8A2B8B2B09F484CF0E94A10630
:101000008090010590900205A0900305B090040522
:101010006C197D098E099F0986169706A806B906E0
:1010200008F070CF809100050E94490785E010927A
:1010300006051092280510920505DF91CF911F91AA
:101040000F91FF90EF90DF90CF90BF90AF909F9067
:101050008F9008959D9191938F5F69CF85EEA5CF75
:101060008091010590910205A0910305B0910405BE
:10107000892B8A2B8B2B09F49ECF0E94A10600910D
:1010800001051091020520910305309104056C19AA
:101090007D098E099F09061717072807390708F0E9
:1010A0008ACFC0CF81E0C3CF80E0C1CF82E0BFCF85
:1010B00083E0BDCF0895E091D7048091D804E8176C
:1010C00030F4F0E0E954FB4F808190E008958FEF19
:1010D0009FEF08959091D7048091D8042FEF3FEFB0
:1010E000981748F4E92FF0E0E954FB4F208130E0F5
:1010F0009F5F9093D704C9010895CF92DF92EF923A
:10110000FF920F931F93CF93DF937C01CB018A0152
:1011100020910505222389F0EB016B01C40ED51E39
:10112000CC15DD0569F06991D701ED91FC91019035
:10113000F081E02DC7011995F3CF642F0E940407B9
:10114000C801DF91CF911F910F91FF90EF90DF9039
:10115000CF900895CF93DF931F92CDB7DEB7698309
:10116000209105052223F9F020912805203258F01E
:1011700021E030E0FC013383228390E080E00F9097
:10118000DF91CF91089580910605E82FF0E0E95FA7
:10119000FA4F998190838F5F80930605809328058D
:1011A00081E090E0ECCF61E0CE0101960E9404075F
:1011B000F7CFCF93DF93EB0190917E0821E020934E
:1011C0000505909327051092060510922805682FB3
:1011D00080E097E00E94AA08813061F441E050E08D
:1011E000BE0180E097E00E947D0881E0DF91CF9111
:1011F0000C946A078FEFDF91CF910895CF93DF931F
:10120000DB01EA01FC01E55EFB4F40815CE0589F99
:101210009001599F300D112447FF1CC011961C925C
:101220001E9280818F5F80838081A901480F511DAC
:1012300087FD5A9557FF03C080818C30ACF08D91AB
:101240009C911197049680349C4938F18D919C9122
:10125000049625C08081A901480F511D87FD5A952C
:1012600057FFDFCF8081DDCF8D919C914081240F8E
:10127000311D47FD3A95D901AA0FBB1FA20FB31F1D
:10128000A557BC4F11962D913C91820F931F9983C6
:1012900088838081DF91CF91089580E49CE99983D0
:1012A00088838FEF8083F6CFCF93DF93EC0160E0EC
:1012B00089810E9457058981863308F086532091E1
:1012C0007B00982F9870277F922B90937B008770DC
:1012D000806480937C0080917A00806480937A009F
:1012E00080917A0086FDFCCF809178009091790002
:1012F000DF91CF910895EF92FF920F931F93CF93B9
:10130000DF938B016F3F710519F014F00FEF10E0C0
:1013100001302FEF120714F401E01FEFFC012085CC
:10132000318520173107C1F1EC0111870087158342
:101330000483DC01AF58BF4F8C919F012E583F4F63
:101340007901C059DF4F77FF19C060E00E9429057D
:101350008FE090E00197F1F761E0F70180810E9452
:10136000290566277727601B710B8881DF91CF9154
:101370001F910F91FF90EF900C94CA0561E00E94BD
:1013800029058FE090E00197F1F760E0F701808197
:101390000E942905B801E9CFDF91CF911F910F91EC
:1013A000FF90EF90089590E080E00895CF93DF9351
:1013B000EC0188819981009711F00E949D26198285
:1013C00018821D821C821B821A82DF91CF910895A0
:1013D000FC0180819181009711F00C949D26089565
:1013E0008F929F92AF92BF92CF92DF92EF92FF9235
:1013F0000F931F93CF93DF937B01C42F90917E08AF
:1014000021E0209305059093270510920605109280
:101410002805682F80E097E00E94AA08813009F033
:10142000ECC080E00E946A078111DAC0D0917E088A
:101430000E94A1064B015C018091FF04811166C0EE
:1014400081E08093FF048093FE049FEF9093FD045E
:101450001092FC049C0F9093FB048093DA0480911B
:10146000DA04DD0FD82BD093DA048091D9048130CF
:1014700009F08CC01092D9040E94A1064B015C01B6
:101480008091DA048093BB00809101059091020560
:10149000A0910305B0910405892B8A2B8B2BA1F019
:1014A0000E94A106009101051091020520910305FB
:1014B00030910405681979098A099B0906171707ED
:1014C0002807390708F443C08091BC0083FDD8CFBA
:1014D00085EC8093BC000E94A1064B015C018091C9
:1014E000FF04813009F454C08091FC041C2F8C1738
:1014F00010F41091FC04EBEDF4E0A7EBB4E080E015
:10150000811751F191919D938F5FFACF80910105E1
:1015100090910205A0910305B0910405892B8A2BB7
:101520008B2B09F489CF0E94A1060091010510912F
:1015300002052091030530910405681979098A098B
:101540009B09061717072807390708F075CF809100
:1015500000050E94490710E01092D7041093D804A8
:101560006701F12CE12CD0E08091D704181791F19C
:10157000EC16FD067CF580E097E00E946A089FEF7C
:10158000E91AF90AF60181936F01EECF85EEA1CF3A
:101590008091010590910205A0910305B091040589
:1015A000892B8A2B8B2B09F49ACF0E94A1060091DC
:1015B0000105109102052091030530910405681979
:1015C00079098A099B09061717072807390708F0C0
:1015D00086CFBDCF81E0EC16FD0609F480E0819551
:1015E000DF91CF911F910F91FF90EF90DF90CF90FF
:1015F000BF90AF909F908F9008958FEFF1CF0F9392
:101600001F93CF93DF9380918E0890918F08EC0108
:10161000CC0FDD1FC80FD91F0091900810919108C1
:10162000AE01B80180919208909193080E9407281A
:10163000892B09F43BC0A0919408B0919508809142
:1016400098083FB7F8942C91982F90959223822B6D
:10165000F801CE0FDF1FEC17FD0781F0219148E064
:101660008C9300C027FF9C93220F00C000C000C0D5
:1016700008F49C9300C04A9599F7EDCF3FBF809145
:101680008E0890918F08AC01440F551F480F591FC9
:1016900060919008709191088091920890919308C0
:1016A0000E9414288BEC97E00197F1F7DF91CF911E
:1016B0001F910F910895FC0101900020E9F73197E7
:1016C000AF01481B590BBC0183E696E00C94400324
:1016D0008F929F92AF92BF920F931F93CF93DF93FE
:1016E000CDB7DEB7A1970FB6F894DEBF0FBECDBF62
:1016F00019A2423008F44AE08E010F5D1F4F842E7C
:10170000912CB12CA12CA50194010E945823E62F05
:10171000B901CA01EA30F4F4E05DD801EE938D011D
:10172000232B242B252B79F790E080E0109719F0DC
:10173000CD010E945B0BA1960FB6F894DEBF0FBEE1
:10174000CDBFDF91CF911F910F91BF90AF909F9030
:101750008F900895E95CE1CF4F925F926F927F92F4
:101760008F929F92AF92BF92CF92DF92EF92FF92B1
:101770006B017C01AC019B010E94E6258823C1F02E
:1017800088E492E00E945B0B7C0184E592E00E9479
:101790005B0B8E0D9F1DFF90EF90DF90CF90BF9061
:1017A000AF909F908F907F906F905F904F90089533
:1017B00046015701E894B7F82FEF3FEF4FE75FE797
:1017C000C501B4010E94E62581110DC02FEF3FEF46
:1017D0004FE75FE7C501B4010E94152218161CF4FB
:1017E0008CE492E0CFCF2FEF3FEF4FE75FE4C701EC
:1017F000B6010E948F2518161CF480E592E0C2CF36
:101800002FEF3FEF4FE75FECC701B6010E941522B3
:1018100087FDF3CF20E030E0A901C701B6010E94A7
:101820001522B12CA12C87FF0AC06DE283E696E059
:101830000E9403045C01F7FAF094F7F8F0942AE0B0
:1018400037ED43EA5BE3C701B6010E948A232B010F
:101850003C010E94E1246B017C010E941A229B0141
:10186000AC01C301B2010E9489232B013C014AE073
:10187000C701B6010E94680B7C01EA0CFB1C6EE2FA
:1018800083E696E00E940304E80EF91E20E030E0B3
:1018900040E251E4C301B2010E947B222B013C01D2
:1018A0000E94E1244B01B12CA12C4AE0C501B401F6
:1018B0000E94680BE80EF91EC501B4010E941A22AD
:1018C0009B01AC01C301B2010E94892320E030E0FA
:1018D00040E251E40E947B220E94E12490E080E0FB
:1018E0004AE00E94680BE80EF91E4FCFCF92DF92BC
:1018F000EF92FF92CF93DF936C01990FEE08FF08F0
:10190000F7FE1FC06DE283E696E00E940304EC013F
:1019100066277727CB016C197D098E099F094AE05C
:101920000E94680BC80FD91F84E592E00E945B0BF0
:101930008C0F9D1FDF91CF91FF90EF90DF90CF90A4
:1019400008954AE0C701B6010E94680BEC01ECCF94
:101950008F929F92AF92BF92CF92DF92EF92FF92BF
:101960000F931F930E94F806C0902108D090220880
:10197000E0902308F09024086C197D098E099F09D6
:10198000683171058105910518F081E08093200888
:1019900080912008882309F47CC00E94F806609397
:1019A00021087093220880932308909324081092B2
:1019B000200880E00E94B90583E090E00197F1F7EC
:1019C00081E00E94B90583E290E00197F1F780E0A1
:1019D0000E94B90560E080911C080E945705809123
:1019E0001C0890E0FC01EA54FC4F6491FC01E059B2
:1019F000FC4FE491F0E0EE0FFF1FEA5AFC4F859197
:101A0000949100E412E42FE030E0462F0E941B1373
:101A1000611571058105910529F06F5F7F4F8F4F2B
:101A20009F4F9F706B017C010E941C2260932508D0
:101A3000709326088093270890932808C701B60161
:101A40000E941C2220E030E048E652E40E94682414
:101A50004B015C0120E030E048EC53E40E948F250C
:101A600087FF04C0CD28CE28CF2831F4812C912CBB
:101A700088ECA82E83E4B82EC501B4011F910F9104
:101A8000FF90EF90DF90CF90BF90AF909F908F909E
:101A900008956091250870912608809127089091FB
:101AA00028080E94DA246B017C01C8CFFC018081E8
:101AB0009181009711F00C945E1F60E070E0CB0103
:101AC0000895CF93DF93DC0114962D913C911597E7
:101AD000232B79F0FB01CD91DC9160817181CE01E6
:101AE0000E942D28009729F08C1B9D0BDF91CF9130
:101AF00008958FEF9FEFFACFFC0124813581232BCE
:101B000039F421E0FB018081882349F020E007C0FF
:101B1000808191810E941D2821E0892BB9F7822FB5
:101B200008950F931F93CF93DF938C01EB01FC017A
:101B3000808191810097E1F068817981611571055B
:101B4000A9F0428153812C813D814217530770F0E7
:101B50000E9426288C819D81F801958384831D82B3
:101B60001C82DF91CF911F910F9108950E949D26B5
:101B700088819981F801918380838A819B819383F5
:101B800082838C819D8195838483198218821B8234
:101B90001A82E5CF0F931F93CF93DF93EC018881D7
:101BA0009981009759F02A813B812617370730F039
:101BB00081E0DF91CF911F910F9108958B016F5FAD
:101BC0007F4F0E942627009759F0998388831B83B3
:101BD0000A832C813D81232B59F7FC011082E8CF29
:101BE00080E0E7CFEF92FF920F931F93CF93DF93A5
:101BF0006115710541F480E0DF91CF911F910F9144
:101C0000FF90EF90089541155105B1F07B01EC0173
:101C10000C811D81040F151FB8010E94CA0D882375
:101C200051F3288139818C819D81B701820F931FE7
:101C30000E9426281D830C8381E0DECFCF93DF93A3
:101C4000EC0141E050E067E572E00E94F20D811185
:101C500003C0CE010E94D609CE01DF91CF91089535
:101C6000CF93DF93EC01FB01448155816081718149
:101C70000E94F20D811103C0CE010E94D609CE014F
:101C8000DF91CF910895EF92FF920F931F93CF931F
:101C9000DF93EC017B018A01BA010E94CA0D811118
:101CA0000BC0CE010E94D609CE01DF91CF911F91CA
:101CB0000F91FF90EF9008951D830C83B7018881E9
:101CC00099810E942628F0CFFB0101900020E9F7BE
:101CD0003197AF01461B570B0C94430EEF92FF92C6
:101CE0000F931F93CF93DF93CDB7DEB7A1970FB6B6
:101CF000F894DEBF0FBECDBF7C01CB01BA01F70166
:101D00001182108213821282158214828E010F5F5B
:101D10001F4F22E044E00E94401F009789F0BC0161
:101D2000C7010E94640EA1960FB6F894DEBF0FBEE5
:101D3000CDBFDF91CF911F910F91FF90EF9008954C
:101D4000C7010E94D609EFCFFC01118210821382D5
:101D5000128215821482FB0101900020E9F731976D
:101D6000AF01461B570B0C94430EAF92BF92CF921C
:101D7000DF92EF92FF920F931F93CF93DF936C014B
:101D80005B017A0189012417350720F48F2D790131
:101D9000042F182F66E572E0C6010E94A40ED5013B
:101DA0001496CD91DC91EC16FD06E0F40C171D079E
:101DB00008F4E801D501ED91FC911197EC0FFD1F9E
:101DC000108110826D917C916E0D7F1DC601611591
:101DD0007105A1F00E94640EF50180819181C80F08
:101DE000D91F1883C601DF91CF911F910F91FF90EA
:101DF000EF90DF90CF90BF90AF9008950E94D609EA
:101E0000EBCF85ED8093BC00809101059091020598
:101E1000A0910305B09104050796A11DB11D23E013
:101E2000B695A795979587952A95D1F72091BC00EF
:101E300024FD03C01092FF040895409101055091C4
:101E400002056091030570910405452B462B472B35
:101E500069F30097A105B10541F025E32A95F1F753
:101E600000000197A109B109E1CF809100050C9410
:101E700049071F920F920FB60F9211240BB60F92C3
:101E80002F933F934F935F936F937F938F939F9382
:101E9000AF93BF93EF93FF9389E295E00E94E10334
:101EA000FF91EF91BF91AF919F918F917F916F9132
:101EB0005F914F913F912F910F900BBE0F900FBEEE
:101EC0000F901F9018951F920F920FB60F9211242A
:101ED0000BB60F922F933F934F935F936F937F9324
:101EE0008F939F93AF93BF93EF93FF9389E295E016
:101EF0000E946D03FF91EF91BF91AF919F918F91E0
:101F00007F916F915F914F913F912F910F900BBEF9
:101F10000F900FBE0F901F9018951F920F920FB643
:101F20000F9211240BB60F922F933F934F935F9311
:101F30006F937F938F939F93AF93BF93EF93FF9391
:101F400086EC95E00E94E103FF91EF91BF91AF9184
:101F50009F918F917F916F915F914F913F912F91C1
:101F60000F900BBE0F900FBE0F901F9018951F92F1
:101F70000F920FB60F9211240BB60F922F933F932F
:101F80004F935F936F937F938F939F93AF93BF9381
:101F9000EF93FF9386EC95E00E946D03FF91EF9124
:101FA000BF91AF919F918F917F916F915F914F9171
:101FB0003F912F910F900BBE0F900FBE0F901F906F
:101FC00018951F920F920FB60F9211240BB60F9215
:101FD0002F933F934F935F936F937F938F939F9331
:101FE000AF93BF93EF93FF9383E696E00E94E103E4
:101FF000FF91EF91BF91AF919F918F917F916F91E1
:102000005F914F913F912F910F900BBE0F900FBE9C
:102010000F901F9018951F920F920FB60F921124D8
:102020000BB60F922F933F934F935F936F937F93D2
:102030008F939F93AF93BF93EF93FF9383E696E0C5
:102040000E946D03FF91EF91BF91AF919F918F918E
:102050007F916F915F914F913F912F910F900BBEA8
:102060000F900FBE0F901F9018951F920F920FB6F2
:102070000F9211242F933F938F939F93AF93BF930E
:102080008091660490916704A0916804B0916904FE
:102090003091650423E0230F2D3758F50196A11DDB
:1020A000B11D209365048093660490936704A09308
:1020B0006804B093690480916A0490916B04A091C4
:1020C0006C04B0916D040196A11DB11D80936A044A
:1020D00090936B04A0936C04B0936D04BF91AF9187
:1020E0009F918F913F912F910F900FBE0F901F9056
:1020F000189526E8230F0296A11DB11DD2CF1F927D
:102100000F920FB60F9211240BB60F922F933F939D
:102110004F935F936F937F938F939F93AF93BF93EF
:10212000EF93FF938091B900887F803609F44DC00A
:1021300008F040C0883209F4A9C028F5803109F4BC
:102140009DC0C8F4882309F4FBC0883009F496C008
:10215000FF91EF91BF91AF919F918F917F916F917F
:102160005F914F913F912F910F900BBE0F900FBE3B
:102170000F901F901895883109F488C0803241F77C
:102180008093FD0414C0803409F49DC040F4803372
:10219000B9F38833E9F68093FD0485ECB0C080354F
:1021A00009F485C0883509F496C0883489F60E9400
:1021B000010FCECF883909F48CC038F5883729F063
:1021C00050F4883611F0803719F683E08093FF04CD
:1021D0001092640457C0883809F47BC0803919F024
:1021E000803809F0B5CF80916404803208F071C066
:1021F000E091640481E08E0F809364048091BB00C1
:10220000F0E0EC5BFB4F80833DC0803B39F0E0F4B5
:10221000803A09F479C0883A09F09ACF84E0809333
:10222000FF041092430410924204E0917004F09174
:10223000710419958091420481110FC081E080934F
:1022400042041092220409C0803C09F4A6CF883CC5
:1022500009F4A3CF883B09F07BCFE091430481E0F0
:102260008E0F80934304F0E0EE5DFB4F80818093FE
:10227000BB00909143048091420429C08091DA040C
:102280008093BB0085EC8093BC0062CF9091FC04EE
:102290008091FB04981758F5E091FC0481E08E0FC3
:1022A0008093FC04F0E0E552FB4F8081E9CFE091A0
:1022B000FC0481E08E0F8093FC048091BB00F0E071
:1022C000E552FB4F80839091FC048091FB049817AA
:1022D000C8F285E8D8CFE091FC0481E08E0F8093AE
:1022E000FC048091BB00F0E0E552FB4F80838091BD
:1022F000FE0481115CCF81E08093D90484EA80934D
:10230000BC001092FF0424CF85EC8093BC00109297
:10231000FF0480916404803230F4E0916404F0E0C2
:10232000EC5BFB4F10826091640470E0E0916E04FE
:10233000F0916F0484E494E019951092640408CF3E
:102340001092FD0434CF1F920F920FB60F921124FA
:102350000F900FBE0F901F9018951F920F920FB6FF
:102360000F9211240BB60F922F933F934F935F93CD
:102370006F937F938F939F93AF93BF93EF93FF934D
:1023800048E251E064E271E090E080E00E94FE08E3
:10239000FF91EF91BF91AF919F918F917F916F913D
:1023A0005F914F913F912F910F900BBE0F900FBEF9
:1023B0000F901F9018951F920F920FB60F92112435
:1023C0000BB60F922F933F934F935F936F937F932F
:1023D0008F939F93AF93BF93EF93FF9348EA50E09F
:1023E00064EA70E083E090E00E94FE08FF91EF91C4
:1023F000BF91AF919F918F917F916F915F914F911D
:102400003F912F910F900BBE0F900FBE0F901F901A
:1024100018951F920F920FB60F9211240BB60F92C0
:102420002F933F934F935F936F937F938F939F93DC
:10243000AF93BF93EF93FF9348E950E064E970E0F6
:1024400082E090E00E94FE08FF91EF91BF91AF9172
:102450009F918F917F916F915F914F913F912F91BC
:102460000F900BBE0F900FBE0F901F9018951F92EC
:102470000F920FB60F9211240BB60F922F933F932A
:102480004F935F936F937F938F939F93AF93BF937C
:10249000EF93FF9348E850E064E870E081E090E05B
:1024A0000E94FE08FF91EF91BF91AF919F918F9194
:1024B0007F916F915F914F913F912F910F900BBE44
:1024C0000F900FBE0F901F9018951F920F920FB68E
:1024D0000F9211240BB60F920F931F932F933F93DC
:1024E0004F935F936F937F938F939F93AF93BF931C
:1024F000CF93EF93FF9382E00E940005C82F809155
:10250000240390912503019690932503809324033F
:1025100080918A03843618F085E080931F038091B0
:102520001F03833009F444C0C0F48230B9F1FF9135
:10253000EF91CF91BF91AF919F918F917F916F91CB
:102540005F914F913F912F911F910F910F900BBE73
:102550000F900FBE0F901F901895843009F441C062
:10256000853029F70E94F80600912003109121037D
:102570002091220330912303601B710B820B930B7C
:10258000693C71058105910508F44EC010928A03DB
:10259000109225031092240382E020C0C111C7CFFE
:1025A00010928A03109225031092240383E016C030
:1025B000C13009F0BCCF8091240390912503E091B4
:1025C0008A0391E09E0F90938A03F0E0E25EFC4F55
:1025D0008087109225031092240384E080931F03C8
:1025E000A6CF8091240390912503C1110BC0E091E7
:1025F0008A0391E09E0F90938A03F0E0E25EFC4F25
:102600008087D0CF8536910508F491CF85E08093FF
:102610001F030E94F80660932003709321038093A8
:1026200022039093230383CFC11181CF10922503FE
:10263000109224037CCFCF92DF92EF92FF920F9300
:102640001F93E82FF92F05C0015011092109310905
:1026500061F1908196239417B9F305C001501109D7
:102660002109310911F1908196239413F7CFC12CE0
:10267000D12CE12CF12C0AC08FEFC81AD80AE80A35
:10268000F80A0C151D052E053F0579F0808186237B
:10269000841791F36C2D7D2D8E2D9F2D1F910F9101
:1026A000FF90EF90DF90CF90089560E070E080E0C1
:1026B00090E01F910F91FF90EF90DF90CF900895E1
:1026C0002F923F924F925F926F927F928F929F9242
:1026D000AF92BF92CF92DF92EF92FF920F931F9330
:1026E000CF93DF9300D000D000D01F921F92CDB7C0
:1026F000DEB74C015B013C012FE7620E711CD30178
:102700001C922C01B4E74B0E511CF201608325E0B2
:10271000269FF001279FF00D1124EA5FFD4F3080C6
:1027200082599F4F9B878A87DC013C92B181BB8392
:1027300064012FE6C20ED11C2B2FD6012C933281BF
:102740003C8302969F838E83DC013C93B381BD83DF
:10275000740121E7E20EF11C2B2FD7012C9324806A
:1027600084010E581F4FD8012C92F401E459FF4FF9
:10277000F987E887108262E0832D0E94570562E0A6
:10278000D6018C910E94570561E0F70180810E947B
:10279000570561E0D8018C910E945705F40116A2FB
:1027A00017A210A611A684EF91E09187808710826E
:1027B00089E090E09383828388E691E1ADE1B2E421
:1027C000868B978BA08FB18FAA85BB858C91823128
:1027D00009F073C0ED58FF4FB5E0B08370E060E0E2
:1027E000C4010E947B09F40116A217A210A611A62B
:1027F0000E94F806940129583F4F3A832983D90152
:102800006D937D938D939C931397BB24B394F301A5
:10281000B082D201AC92EA85FB853082EB81D60191
:10282000EC93EC81AE81BF81EC93ED81D701EC9309
:10283000D8012C92E885F985108262E0832D0E94F0
:10284000570562E0D6018C910E94570561E0F701BF
:1028500080810E94570561E0D8018C910E94570544
:10286000EA85FB858081823109F042C0F401ED5890
:10287000FF4F85E080830E94F806A981BA816D939D
:102880007D938D939C9313972B960FB6F894DEBF90
:102890000FBECDBFDF91CF911F910F91FF90EF90B1
:1028A000DF90CF90BF90AF909F908F907F906F9070
:1028B0005F904F903F902F900895833131F484E0E2
:1028C000F401ED58FF4F808389CF843111F483E008
:1028D000F7CF853111F482E0F3CF833011F481E03A
:1028E000EFCF823009F07ACFED58FF4F108276CFCC
:1028F000833129F4F401ED58FF4F84E0BBCF8431DC
:1029000029F4F401ED58FF4F83E0B4CF853129F469
:10291000F401ED58FF4F82E0ADCF833029F4F4018C
:10292000ED58FF4FB082A7CF823009F0A4CFF40159
:10293000ED58FF4F10829FCF10922C0510922B055F
:1029400088EE93E0A0E0B0E080932D0590932E05F3
:10295000A0932F05B093300528E232E030932A058A
:102960002093290545E351E0509336054093350502
:1029700044E351E0509338054093370540E351E07C
:1029800050933A054093390541E351E050933C059B
:1029900040933B0542E351E050933E0540933D0593
:1029A00046E351E05093400540933F0510924205A5
:1029B0001092430510924405109245051092C905E6
:1029C0001092C8058093CA059093CB05A093CC05BF
:1029D000B093CD053093C7052093C60545ED50E073
:1029E0005093D3054093D20544ED50E05093D50564
:1029F0004093D40540ED50E05093D7054093D60561
:102A000041ED50E05093D9054093D80542ED50E098
:102A10005093DB054093DA0546ED50E05093DD0519
:102A20004093DC051092DF051092E0051092E1055D
:102A30001092E20510926606109265068093670672
:102A400090936806A0936906B0936A063093640673
:102A50002093630625EC30E03093700620936F06D8
:102A600024EC30E0309372062093710620EC30E0C5
:102A7000309374062093730621EC30E03093760691
:102A80002093750622EC30E0309378062093770689
:102A900026EC30E030937A062093790610927C067B
:102AA00010927D0610927E0610927F061092030708
:102AB000109202078093040790930507A0930607DE
:102AC000B09307078AE392E0909301078093000791
:102AD00081E090E090939A088093990810929B0966
:102AE00010929C0910929D0910929E0910929F09C4
:102AF0001092A0091092A1091092A2091092A309A4
:102B00001092A4091092A5091092A6091092A70983
:102B10001092A8091092AA091092A9091092AB0963
:102B20001092AC091092AD091092AE091092AF0943
:102B30001092B0091092B1091092B2091092B30923
:102B400083E08093840882E08093850880938608E0
:102B500080E180937F0881E18093800885E0809305
:102B6000810880933C0884E080933D0881E0809355
:102B70003E0889E680937E081092290886E38093B8
:102B80002A089DE090932B0880933B08ECEEF3E03D
:102B9000E491E0932D08E6EAF3E0E491F0E0EE0F33
:102BA000FF1FEA5AFC4F8591949190932F088093D0
:102BB0002E088DE380931B0882E480931C0889E033
:102BC00080931D088CE38093150881E48093160898
:102BD0008AE08093170861E070E083E997E00E9443
:102BE000601362E070E081E197E00E946013109250
:102BF0000D0710920E0710920F0788E080930C07C4
:102C000010928A0810928B0810928C0880E290E053
:102C100090938F0880938E0880E690E00E940126B2
:102C20009093910880939008892B21F489E592E094
:102C30000E94472830E020E040918E0850918F0894
:102C4000CA01880F991F840F951F2817390750F460
:102C5000E0919008F0919108E20FF31F10822F5F2E
:102C60003F4FEACF0E9401269093930880939208E9
:102C7000892B21F489E592E00E94472890E080E0CA
:102C800040918E0850918F089A01220F331F240F14
:102C9000351F8217930748F4E0919208F09193084A
:102CA000E80FF91F10820196EBCF0895CF93DF93C1
:102CB000CDB7DEB7EB970FB6F894DEBF0FBECDBF32
:102CC000789484B5826084BD84B5816084BD85B507
:102CD000826085BD85B5816085BD80916E00816013
:102CE00080936E00109281008091810082608093B9
:102CF00081008091810081608093810080918000BB
:102D00008160809380008091B10084608093B100E5
:102D10008091B00081608093B000809191008260CA
:102D200080939100809191008160809391008091C7
:102D300090008160809390008091A10082608093D8
:102D4000A1008091A10081608093A1008091A000EA
:102D500081608093A0008091210182608093210195
:102D60008091210181608093210180912001816007
:102D70008093200180917A00846080937A00809112
:102D80007A00826080937A0080917A0081608093DB
:102D90007A0080917A00806880937A001092C10056
:102DA000E0917306F091740682E08083E0916F06F3
:102DB000F09170061082E0917106F09172068FEC2E
:102DC000808310927B06E0917706F091780686E08A
:102DD0008083E0917506F091760680818061808322
:102DE000E0917506F0917606808188608083E0919D
:102DF0007506F0917606808180688083E091750683
:102E0000F091760680818F7D808380E090E0A3E85A
:102E1000B2E48093420890934308A0934408B0938F
:102E200045081092460810924708109248081092E0
:102E3000490810924A0810924B0810924C081092C0
:102E40004D0810924E0810924F08109250081092A0
:102E50005108109252081092530810925408109280
:102E60005508109256081092570810925808109260
:102E7000590810925A0810925B0810925C08109240
:102E80005D0810925F0810925E081092610810921F
:102E90006008109263081092620810926408109201
:102EA00065081092660810926708109268081092E0
:102EB000690810926A0810926B0810926C081092C0
:102EC0006D0810926E0810926F081092D70410923D
:102ED000D80410920605109228050E942B078DE356
:102EE00093E090937104809370048EE393E0909349
:102EF0006F0480936E0468EC70E080E090E00E94C4
:102F0000C6061BA6BE01655D7F4F8BE60E94D908F1
:102F100064E670E080E090E00E94C60681E08CA745
:102F2000BE01645D7F4F8AE10E94D90888E08DA7C9
:102F3000BE01635D7F4F8BE10E94D90864E670E0BB
:102F400080E090E00E94C60604EF11E018AA19AADA
:102F50001AAA1BAA812C912C5401412C512C32010C
:102F600046E060E778E083E40E94F0098091700811
:102F700090917108982789279827092E000CAA0B91
:102F8000BB0B480E591E6A1E7B1E809172089091E1
:102F90007308982789279827092E000CAA0BBB0BCA
:102FA000880E991EAA1EBB1E809174089091750808
:102FB000982789279827092E000CAA0BBB0B28A954
:102FC00039A94AA95BA9280F391F4A1F5B1F28ABE3
:102FD00039AB4AAB5BAB0150110909F0C1CF54EFDB
:102FE000C52EDD24D394E12CF12CC301B201A7013D
:102FF00096010E943923CA01B9010E941C226093E4
:103000006408709365088093660890936708C5010B
:10301000B401A70196010E943923CA01B9010E9497
:103020001C22609368087093690880936A089093E3
:103030006B0868A979A98AA99BA9A70196010E9492
:103040003923CA01B9010E941C2260936C08709355
:103050006D0880936E0890936F088DE280930C0743
:1030600040E060E080E00E94330280E030E020E059
:1030700062E091E040918E0850918F082417350747
:10308000D8F4482F50E0E0919208F0919308E40FB3
:10309000F51F6083E0919208F0919308E40FF51F0B
:1030A0001182E0919208F0919308E40FF51F92834A
:1030B0002F5F3F4F8D5FDECFE2EEF3E0E491E093D0
:1030C0009808ECE9F3E0E491F0E0EE0FFF1FE45C18
:1030D000FC4F85919491909395088093940861E0BA
:1030E0008CE20E94570510928C0882E080938D0834
:1030F000AE014A5F5F4F5FA74EA78DB79EB79BAFEC
:103100008AAF40914E0850914F08609150087091DD
:103110005108CE010D960E946E0E40914A085091C2
:103120004B0860914C0870914D08CE0143960E9467
:103130006E0E409146085091470860914808709182
:103140004908CE0149960E946E0E0E94A80CAB0160
:10315000BC01CE014F960E946E0E0E9493051EA2E6
:103160001DA218A61FA21AA619A64AE0BE016F5FEB
:103170007F4F90E00E949A1FBE016F5F7F4FCE018C
:1031800085960E94640E1A8219821C821B821E82FE
:103190001D826DA17EA16115710531F049A55AA569
:1031A000CE0101960E94430ECE0101960E941E0E92
:1031B000BE01615E7F4F0E94300E0E941E0EBE0156
:1031C000675E7F4F0E94300E0E941E0EBE016D5E34
:1031D0007F4F0E94300E0E941E0EBE01635F7F4F24
:1031E0000E94300EDC0114964D915C9115976D9103
:1031F0007C9183E696E00E94400384E592E00E9481
:103200005B0BCE0101960E94E809CE0185960E94D3
:10321000E809CE014F960E94E809CE0149960E9426
:10322000E809CE0143960E94E809CE010D960E945E
:10323000E80983E696E00E94B703892B81F083E6D4
:1032400096E00E94950390917604E92F092E000CD8
:10325000FF0BE958FB4F8A3009F028C210824EE07C
:1032600060E778E08BE30E94F009811101C20091D0
:1032700070081091710810270127102710935F081C
:1032800000935E08E0907208F0907308FE24EF242B
:10329000FE24F0926108E0926008A0907408B0905B
:1032A0007508BA24AB24BA24B0926308A0926208CD
:1032B0004090420850904308609044087090450840
:1032C0006091780870917908762767277627072E0E
:1032D000000C880B990B0E941C22209164083091ED
:1032E000650840916608509167080E948923A301F0
:1032F00092010E946824609352087093530880934F
:1033000054089093550860917A0870917B0876274D
:1033100067277627072E000C880B990B0E941C222A
:10332000209168083091690840916A0850916B08B3
:103330000E948923A30192010E9468246093560889
:1033400070935708809358089093590860917C08AF
:1033500070917D08762767277627072E000C880B4B
:10336000990B0E941C2220916C0830916D084091AD
:103370006E0850916F080E948923A30192010E9458
:10338000682460935A0870935B0880935C0890935C
:103390005D08B701FF0C880B990B0E941C226B0182
:1033A0007C01B501BB0C880B990B0E941C229B0170
:1033B000AC010E947B222B013C01A7019601C701B1
:1033C000B6010E947B22A30192010E948A230E94DF
:1033D000A22568AB79AB8AAB9BABB801110F880B08
:1033E000990B0E941C224B015C0128A939A94AA90A
:1033F0005BA90E94092420E030E044E353E40E94EA
:103400007B222AED3FE049E450E40E94682468AB47
:1034100079AB8AAB9BABA5019401C501B4010E94B5
:103420007B22A30192010E948A230E94A2259B0174
:10343000AC01C701B6010E94092420E030E044E35A
:1034400053E40E947B222AED3FE049E450E40E94CD
:1034500068246CAB7DAB8EAB9FAB0E94F8060091ED
:103460007204109173042091740430917504601BF0
:10347000710B820B930B0E941A2220E030E04AE786
:1034800054E40E9468246B017C010E94F80660935A
:103490007204709373048093740490937504809104
:1034A0006208909163082091560830915708409126
:1034B000580850915908181619060CF0FCC0C7019D
:1034C000B6010E947B229B01AC016091460870917D
:1034D000470880914808909149080E948923609389
:1034E00046087093470880934808909349082091B4
:1034F0005208309153084091540850915508C70123
:10350000B6010E947B2220914A0830914B084091DD
:103510004C0850914D080E948A2360934A0870938A
:103520004B0880934C0890934D0820915A08309195
:103530005B0840915C0850915D08C701B6010E948C
:103540007B2220914E0830914F08409150085091B5
:1035500051080E948A234B015C0120E030E044EBDB
:1035600053E40E9468240E94102520E030E044EBE0
:1035700053E40E947B229B01AC01C501B4010E946F
:1035800089234B015C0120E030E044E353E40E94D6
:103590008F2518160CF4BEC080924E0890924F08EA
:1035A000A0925008B092510820E030E040E05FE384
:1035B000C701B6010E948A239B01AC0160E070E064
:1035C00080E09FE30E9468246B017C01AC019B01B9
:1035D00060E070E080E89FE30E9489234B015C017A
:1035E0002091460830914708409148085091490879
:1035F000C701B6010E947B222B013C01A501940169
:1036000068A979A98AA99BA90E947B229B01AC0188
:10361000C301B2010E948A23609346087093470851
:10362000809348089093490820914A0830914B08AC
:1036300040914C0850914D08C701B6010E947B2271
:103640006B017C01A50194016CA97DA98EA99FA99C
:103650000E947B229B01AC01C701B6010E948A2314
:1036600060934A0870934B0880934C0890934D08E0
:1036700067E774E0CE0149960E94A40E298D3A8D29
:10368000F9018D8D9E8D820F931FF12CE12CE8178F
:10369000F90709F450C02115310531F0408140325D
:1036A00019F4BFEFEB1AFB0A3196F1CF9F5F9093AD
:1036B00076048083BECDC701B6010E947B22209193
:1036C00046083091470840914808509149080E94A7
:1036D0008A23609346087093470880934808909324
:1036E0004908209152083091530840915408509154
:1036F0005508C701B6010E947B229B01AC01609175
:103700004A0870914B0880914C0890914D080E9496
:10371000892303CF20E030E044EB53E4C501B4013A
:103720000E94892360934E0870934F08809350083D
:103730009093510839CF66E572E0CE0143960E941E
:10374000A40E26E02E9DF0012F9DF00D1124F9AB63
:10375000E8AB4DB75EB74E1B5F0B0FB6F8945EBF7C
:103760000FBE4DBF0DB71EB70F5F1F4F5801680149
:10377000912C812CC60156E0C50ED11C8E149F04DD
:1037800041F066E572E00E94A40E8FEF881A980A55
:10379000F1CFE114F10409F4FFC041E050E065E726
:1037A00072E0CE0149960E94F20D65E772E0CE010B
:1037B0000D960E94A40EBE01635F7F4FCE01499615
:1037C0000E94610D9C0150E040E0BE01675E7F4FAA
:1037D000CE0101960E94B50EBE016F5F7F4FCE01F4
:1037E00043960E94910DCE0101960E94E809CE01F8
:1037F0000D960E94E80965E772E0CE010D960E94E1
:10380000A40EBE01635F7F4FCE0149960E94610DF9
:103810002D8D3E8DAC014F5F5F4FBE01675E7F4FC8
:10382000CE0101960E94B50EBE016F5F7F4FCE01A3
:1038300049960E94910DCE0101960E94E809CE01A1
:103840000D960E94E809D12CC12C65E772E0CE01EB
:103850000D960E94A40EBE01635F7F4FCE01499674
:103860000E94610D9C0150E040E0BE01675E7F4F09
:10387000CE0101960E94B50EBE016F5F7F4FC5015C
:103880000E94910DCE0101960E94E809CE010D968D
:103890000E94E8099FEFC91AD90A65E772E0CE01D4
:1038A0000D960E94A40EBE01635F7F4FCE01499624
:1038B0000E94610D2D8D3E8DAC014F5F5F4FBE01AB
:1038C000675E7F4FCE0101960E94B50EBE016F5F0D
:1038D0007F4FCE0149960E94910DCE0101960E9424
:1038E000E809CE010D960E94E809A6E0AA0EB11CD7
:1038F000EC14FD0409F0A9CFB2E0EB16F10409F4D1
:10390000FFC114F5EA94EF2809F499C1E7E7F4E060
:10391000DF0120E41D922A95E9F71092760462E314
:1039200070E080E090E00E94C606E8A8F9A8E00EEA
:10393000F11E0E151F0509F483C236E0E31AF108E3
:10394000C7010E94E809F5CF23E0E216F10409F46B
:103950005DC234E0E316F104C9F66CE772E0CE0113
:1039600043960E947C0D882389F2C8010E94560D5F
:10397000F62EC80106960E94560DE62EC8010C963A
:103980000E94560DD62EC80142960E94560D262F33
:103990004D2D6E2D8F2DB1C167E772E0CE01499696
:1039A0000E947C0D882339F084E898E00E94540935
:1039B0000E94760CABCF62E872E0CE0149960E947D
:1039C0007C0D882319F08FE798E0F0CF6DE872E066
:1039D000CE0149960E947C0D882359F060914608DB
:1039E0007091470880914808909149080E94AC0B5B
:1039F0008DCF69E972E0CE0149960E947C0D882343
:103A000049F060914A0870914B0880914C08909160
:103A10004D08ECCF65EA72E0CE0149960E947C0D1C
:103A2000882349F060914E0870914F0880915008AA
:103A300090915108DBCF61EB72E0CE0149960E9474
:103A40007C0D882309F47EC00E94FE028CEC0E944B
:103A5000910284E40E9491020E94F8066B017C01AD
:103A600080912D08E0912E08F0912F082181982F48
:103A70009095922391839281982B9283A3E2B0E058
:103A80001197F1F79081892359F40E94F8066C1977
:103A90007D098E099F096E3E72408105910500F3F4
:103AA0000E94FE028CEC0E9491028EEB0E94910219
:103AB000DE01119638E0E32EF12C50E061E04091F8
:103AC0002D08E0912E08F0912F08F8942181242BE5
:103AD00021832281742F70952723228327E030E0F1
:103AE000C9010197F1F72181272321832281242B0A
:103AF000228323E230E0C9010197F1F72081789415
:103B0000EFECF0E03197F1F7422309F0562B660F06
:103B100091E0E91AF10899F65D93EEA5FFA5AE17BD
:103B2000BF0709F0C7CF69817A81072E000C880B87
:103B3000990B0E941C2220E030E040E85DE30E94E7
:103B40007B2254CF62EC72E0CE0149960E947C0D3C
:103B5000882319F00E94A80C49CF6DEC72E0CE01C9
:103B600049960E947C0D882371F00E949305682F6E
:103B700070E090E080E04AE00E94680B84E592E00B
:103B80000E945B0BC3CE67ED72E0CE0149960E94A6
:103B90007C0D882369F070E060E083E997E00E9483
:103BA0007B0970E060E081E197E00E947B09AECE86
:103BB0006CED72E0CE0149960E947C0D882349F09D
:103BC00068E37FEF83E997E00E947B0968EC70E08F
:103BD000EACF64EE72E0CE0149960E947C0D68E364
:103BE0007FEF811114C069EE72E0CE0149960E9408
:103BF0007C0D68EC70E08111E5CF6FEE72E0CE01D4
:103C000049960E947C0D882349F068EC70E083E9B6
:103C100097E00E947B0968E37FEFC5CF68EF72E011
:103C2000CE0149960E947C0D882309F46FCE40E0B6
:103C300060E080E00E9433020E94FF0A67CE6CEDD4
:103C400072E0CE0143960E947C0D882371F0C8017A
:103C50000E94560D6B01662777276C197D0983E951
:103C600097E00E947B09B6019ECF64EE72E0CE0120
:103C700043960E947C0D882371F0C8010E94560D66
:103C8000EE24FF24E61AF70AB70183E997E00E94C1
:103C90007B09B70188CF69EE72E0CE0143960E949E
:103CA0007C0D882329F0C8010E94560D6B01D7CFE7
:103CB0006FEE72E0CE0143960E947C0D882369F07E
:103CC000C8010E94560D6B0183E997E00E947B09B1
:103CD000662777276C197D0966CF68EF72E0CE0101
:103CE00043960E947C0D882309F410CEC8010E94DF
:103CF000560D862F20E040E060E00E9465029CCFD8
:103D000067E872E0CE0143960E947C0D882309F497
:103D100061C0C8010E94560D6B017C01C801069666
:103D20000E94560D4B01A70196014427552760E4D8
:103D300072E48FE090E00E943923690161E0809194
:103D40000C070E945705D40128EE33E00E94FA25A3
:103D50002B013C011601D7FE03C0FFEF2F1A3F0ACB
:103D600035942794C101880F991F880F991F9C01D2
:103D70002550310939AF28AF0D2C000CEE08FF0893
:103D8000812C912C540184149504A604B70408F0E6
:103D9000BDCD30910C073CAB61E0832F0E9429051B
:103DA00042E02416310420F088AD99AD0197F1F777
:103DB00060E08CA90E94290552E02516310420F00C
:103DC00088AD99AD0197F1F7A8958C0C9D1CAE1CA0
:103DD000BF1CD9CF62E073E0CE0143960E947C0DF8
:103DE000882309F493CDC8010E94560D6B01C801C8
:103DF00006960E94560D4B01662777276C197D09A0
:103E000083E997E00E947B09B401CDCE6CE772E0B4
:103E1000CE0143960E947C0D882309F477CDC8011A
:103E20000E94560DF62EC80106960E94560DE62EEB
:103E3000C8010C960E94560D462F6E2D8F2DFACE7E
:103E4000CE0143960E94E809CE0149960E94E809F6
:103E50004AAD5BAD0FB6F8945EBF0FBE4DBF0E947A
:103E600070044BC9CF93DF93CAE8D8E08E819F815D
:103E70000E949D2688859985DF91CF910C949D267F
:103E8000EF920F931F93CF93DF93E80134E047FD48
:103E900034E1042E000C550B57FF03C0519541959A
:103EA0005109E32E022F242FAE010E94B41FCE0130
:103EB000DF91CF911F910F91EF9008951F93FC0117
:103EC00099278827BC01E89411911032E9F3193041
:103ED00010F01E30C8F31B3251F01D3249F46894C3
:103EE00006C00E94851F610F711D811D911D1191DA
:103EF00010531A30B0F33EF490958095709561950B
:103F00007F4F8F4F9F4F1F910895592F482F372F65
:103F1000262F660F771F881F991F660F771F881F30
:103F2000991F620F731F841F951F660F771F881FCD
:103F3000991F0895BB27FB015527AA27880F991FB2
:103F4000AA1FA41710F0A41B83955051B9F7A05DC8
:103F5000AA3308F0A95DA193009779F7B111B19345
:103F60001192CB010C9405228F929F92AF92BF9237
:103F7000CF92DF92EF92FF920F931F93CF93DF9335
:103F800000D000D000D0CDB7DEB76A01F22EB02E3F
:103F9000102FFBE3AF2EA01608F41BE31F5F012FC9
:103FA00027E0AE014F5F5F4F0E942D21BC01898148
:103FB000982F9970913009F44EC09BE2E1FC04C047
:103FC0009E2D9170E0FC49C05E2D5071E82FE87085
:103FD00083FF55C084E0911101C083E0EF2DE81B01
:103FE0008F1508F0E0E0D6018E2F20E25523C9F1AD
:103FF000992329F0D6019C93C60101966C01960184
:104000002D5F3F4FE2FE33C08EE4D6018C9391E4E6
:1040100011969C93119712968C93D9018E2F90E252
:1040200081112AC0E20FF32FF11D10828EEF9FEF56
:1040300029960FB6F894DEBF0FBECDBFDF91CF91AA
:104040001F910F91FF90EF90DF90CF90BF90AF90B6
:104050009F908F9008959DE2B7CF90E2B5CF2D93BA
:1040600081508111FCCFCE0ED11CE0E0C1CF8EE695
:10407000D6018C9391E6CCCF9D938150D1CF482F20
:10408000447082FF3DC084E0911101C083E08F1530
:1040900010F4EF2DE81BD6018E2F20E2552309F1F5
:1040A000992329F0D6019C93C60101966C019601D3
:1040B0002D5F3F4FE2FE1BC089E4D6018C938EE456
:1040C00011968C93119786E412968C93D9018E2FBA
:1040D00090E2882309F4A6CF9D938150FACF2D93C7
:1040E00081508111FCCFCE0ED11CE0E0D9CF89E602
:1040F000D6018C938EE611968C93119786E6E4CFC9
:104100009B0177FF02C030E020E0A1E0B0E0911118
:1041100002C0B0E0A0E0F9013196AE0FBF1F8B2CBA
:10412000912CBB2009F461C05401EFEFAE1ABE0A16
:10413000AA0DBB1DFA161B0619F014F04F2D4A1BD1
:10414000511188C0E3FC59C07601A42FB0E2A1113F
:104150004FC0C40ED11C992309F45BC040E0D601C6
:104160001196F60190836D01552309F448C0012F83
:10417000060F9A81582F507184FF03C0913309F4C0
:10418000015010160CF047C0093008F008E0EEE2CC
:10419000FE2E5B01A01AB1088501919481949108CB
:1041A0002F3F320729F4D601FC92F60131966F01B8
:1041B0006217730794F1021713077CF5DB01A21B4A
:1041C000B30BAA24A394B12CAC0EBD1EAA0DBB1D2B
:1041D00011968C9121503109D60111962815390577
:1041E000F4F0F60180836D01DBCFB12CA12CA0CFC0
:1041F000F701B1937F01A150AACF9111B0CFD601A1
:10420000942F50E302C05D9391509111FCCFC40EE6
:10421000D11C40E0ACCF01E0BACF80E3DBCF621726
:10422000730731F4963388F4953311F4552369F00C
:10423000F6018083FD01842F90E2811108C0A40F54
:10424000B11D1C9290E080E0F3CE81E3F1CF919319
:104250008150F3CF911183CF8ACF283008F027E027
:104260003327DA01990F311D87FD916000966105B2
:10427000710539F432602E5F3D9330E32A95E1F702
:1042800008959F3F30F080387105610509F03C5F6B
:104290003C5F3D93913008F08068911DDF93CF9390
:1042A0001F930F93FF92EF92192F987F9695E92F06
:1042B00096959695E90FFF27E45CFD4F99273327E4
:1042C000EE24FF24A701E70105900894079428F441
:1042D000360FE71EF81E491F511D660F771F881FF6
:1042E000991F0694A1F70590079428F4E70EF81E8D
:1042F000491F561FC11D770F881F991F661F0694FF
:10430000A1F70590079428F4F80E491F561FC71F00
:10431000D11D880F991F661F771F0694A1F705907E
:10432000079420F4490F561FC71FD81F990F661F07
:10433000771F881F0694A9F784911095177041F094
:10434000D695C79557954795F794E7941A95C1F771
:10435000E2EEF1E068941590159135916591959193
:1043600005907FE27395E118F10A430B560BC90BD8
:10437000D009C0F7E10CF11E431F561FC91FD01D05
:104380007EF4703311F48A95E6CFE894015030F052
:10439000080F0AF40027021708F4202F2395022F94
:1043A0007A3328F079E37D932A95E9F710C07D935D
:1043B0002A9589F6069497956795379517951794DA
:1043C000E118F10A430B560BC90BD00998F023955D
:1043D0007E9173957A3308F070E37C932013B8F7DD
:1043E0007E9170617D9330F0839571E37D9370E3EE
:1043F0002A95E1F71124EF90FF900F911F91CF9133
:10440000DF91992787FD90950895DC01FC01672FC6
:1044100071917723E1F7329704C07C916D9370839B
:104420006291AE17BF07C8F308950E94572208F49F
:1044300081E00895E89409C097FB3EF4909580953B
:10444000709561957F4F8F4F9F4F9923A9F0F92F5A
:1044500096E9BB279395F695879577956795B795D8
:10446000F111F8CFFAF4BB0F11F460FF1BC06F5FBE
:104470007F4F8F4F9F4F16C0882311F096E911C0D0
:10448000772321F09EE8872F762F05C0662371F0F1
:1044900096E8862F70E060E02AF09A95660F771F05
:1044A000881FDAF7880F9695879597F90895990FE1
:1044B0000008550FAA0BE0E8FEEF16161706E807EE
:1044C000F907C0F012161306E407F50798F0621B0F
:1044D000730B840B950B39F40A2661F0232B242BE4
:1044E000252B21F408950A2609F4A140A6958FEF03
:1044F000811D811D08950E948E220C94FF220E942E
:10450000F12238F00E94F82220F0952311F00C944B
:10451000E8220C94EE2211240C9433230E941023E1
:1045200070F3959FC1F3950F50E0551F629FF00106
:10453000729FBB27F00DB11D639FAA27F00DB11D1F
:10454000AA1F649F6627B00DA11D661F829F2227A8
:10455000B00DA11D621F739FB00DA11D621F839F2F
:10456000A00D611D221F749F3327A00D611D231F05
:10457000849F600D211D822F762F6A2F11249F5753
:1045800050409AF0F1F088234AF0EE0FFF1FBB1F56
:10459000661F771F881F91505040A9F79E3F510515
:1045A00080F00C94E8220C9433235F3FE4F3983EB0
:1045B000D4F3869577956795B795F795E7959F5FBF
:1045C000C1F7FE2B880F911D9695879597F9089551
:1045D00097F99F6780E870E060E008959FEF80ECB6
:1045E000089500240A941616170618060906089559
:1045F00000240A9412161306140605060895092EBF
:104600000394000C11F4882352F0BB0F40F4BF2B2D
:1046100011F460FF04C06F5F7F4F8F4F9F4F08956D
:1046200057FD9058440F551F59F05F3F71F0479563
:10463000880F97FB991F61F09F3F79F08795089548
:10464000121613061406551FF2CF4695F1DF08C067
:10465000161617061806991FF1CF86957105610584
:1046600008940895E894BB2766277727CB0197F92C
:104670000895052E97FB1EF400940E94502357FDC9
:1046800007D00E94582307FC03D04EF40C9450230B
:1046900050954095309521953F4F4F4F5F4F08956E
:1046A00090958095709561957F4F8F4F9F4F08959E
:1046B000A1E21A2EAA1BBB1BFD010DC0AA1FBB1F26
:1046C000EE1FFF1FA217B307E407F50720F0A21B98
:1046D000B30BE40BF50B661F771F881F991F1A9405
:1046E00069F760957095809590959B01AC01BD012F
:1046F000CF010895A29FB001B39FC001A39F700D89
:10470000811D1124911DB29F700D811D1124911DD9
:1047100008955058BB27AA270E94A1230C94FF227A
:104720000E94F12238F00E94F82220F039F49F3FD5
:1047300019F426F40C94EE220EF4E095E7FB0C94A9
:10474000E822E92F0E94102358F3BA176207730773
:104750008407950720F079F4A6F50C9432230EF423
:10476000E0950B2EBA2FA02D0B01B90190010C0181
:10477000CA01A0011124FF27591B99F0593F50F499
:10478000503E68F11A16F040A22F232F342F4427F1
:10479000585FF3CF469537952795A795F0405395E9
:1047A000C9F77EF41F16BA0B620B730B840BBAF0B9
:1047B0009150A1F0FF0FBB1F661F771F881FC2F724
:1047C0000EC0BA0F621F731F841F48F48795779538
:1047D0006795B795F7959E3F08F0B0CF9395880FF2
:1047E00008F09927EE0F9795879508950E94F1227A
:1047F00060F080E891E009F49EEF0E94F82228F032
:1048000040E851E071F45EEF0CC00C94EE220C9481
:104810003223E92FE0780E94102340F3092E052A65
:10482000B1F3261737074807590738F00E2E07F857
:10483000E02569F0E025E0640AC0EF6307F8009422
:1048400007FADB01B9019D01DC01CA01AD01EF935B
:104850000E947F240E94FF220E9439245F915523E9
:1048600039F02BED3FE049E450FD49EC0C948A23EC
:104870000895DF93DD27B92FBF7740E85FE3161671
:10488000170648075B0718F4D92F0E9494259F93B9
:104890008F937F936F930E94E225E4EEF0E00E94F5
:1048A00050250E94FF222F913F914F915F910E94CE
:1048B0008E22DD2351F09058A2EA2AED3FE049EC28
:1048C0005FE3D0785D270E94A123DF910C94FF2243
:1048D0000E947C240C94FF220E94F82258F00E942F
:1048E000F12240F029F45F3F29F00C94E8225111A5
:1048F0000C9433230C94EE220E94102368F3992326
:10490000B1F3552391F3951B550BBB27AA276217CB
:104910007307840738F09F5F5F4F220F331F441FD8
:10492000AA1FA9F335D00E2E3AF0E0E832D091500C
:104930005040E695001CCAF72BD0FE2F29D0660FF9
:10494000771F881FBB1F261737074807AB07B0E83C
:1049500009F0BB0B802DBF01FF2793585F4F3AF042
:104960009E3F510578F00C94E8220C9433235F3F6E
:10497000E4F3983ED4F3869577956795B795F795C8
:104980009F5FC9F7880F911D9695879597F90895B0
:10499000E1E0660F771F881FBB1F6217730784074C
:1049A000BA0720F0621B730B840BBA0BEE1F88F75B
:1049B000E09508950E94E1246894B1110C9433238A
:1049C00008950E94182388F09F5798F0B92F9927CF
:1049D000B751B0F0E1F0660F771F881F991F1AF0EA
:1049E000BA95C9F714C0B13091F00E943223B1E0FA
:1049F00008950C943223672F782F8827B85F39F0F9
:104A0000B93FCCF3869577956795B395D9F73EF482
:104A100090958095709561957F4F8F4F9F4F08952A
:104A20000E94772590F09F3748F4911116F00C946E
:104A3000332360E070E080E89FEB089526F41B16B6
:104A4000611D711D811D0C9427250C94422588231E
:104A500071F4772321F09850872B762F07C06623B7
:104A600011F499270DC09051862B70E060E02AF078
:104A70009A95660F771F881FDAF7880F96958795A6
:104A800097F908959F3F31F0915020F487957795DD
:104A90006795B795880F911D9695879597F9089515
:104AA000DF93CF931F930F93FF92EF92DF927B01DF
:104AB0008C01689406C0DA2EEF010E948E22FE015E
:104AC000E894A5912591359145915591A6F3EF0173
:104AD0000E94A123FE019701A801DA9469F7DF90F3
:104AE000EF90FF900F911F91CF91DF9108950E9459
:104AF0001823A0F0BEE7B91788F4BB279F3860F4ED
:104B00001616B11D672F782F8827985FF7CF8695E7
:104B100077956795B11D93959639C8F308950E94CE
:104B2000572208F48FEF08959B01AC0160E070E01C
:104B300080E89FE30C94682419F416F40C94EE2298
:104B40000C9442250E941823B8F39923C9F3B6F3B5
:104B50009F57550B87FF0E94EB250024A0E640EAF3
:104B6000900180585695979528F4805C660F771FC2
:104B7000881F20F026173707480730F4621B730B95
:104B8000840B202931294A2BA695179407942025B8
:104B900031254A2758F7660F771F881F20F0261700
:104BA0003707480730F4620B730B840B200D311D5F
:104BB000411DA09581F7B901842F9158880F9695D2
:104BC000879508959B01AC010C947B220E9457228B
:104BD000880B990B089591505040660F771F881FDE
:104BE000D2F70895EE0FFF1F881F8BBF0790F69135
:104BF000E02D19940E947A23B7FF0895821B930B2E
:104C000008950F931F93CF93DF938230910510F493
:104C100082E090E0E091B609F091B70930E020E041
:104C2000B0E0A0E0309799F42115310509F44AC0AD
:104C3000281B390B24303105D8F58A819B816115F9
:104C4000710589F1FB0193838283FE0111C04081CC
:104C500051810281138148175907E0F0481759071D
:104C600099F4109761F012960C93129713961C9377
:104C70003296CF01DF91CF911F910F91089500934C
:104C8000B6091093B709F4CF2115310551F0421739
:104C9000530738F0A901DB019A01BD01DF01F801DA
:104CA000C1CFEF01F9CF9093B7098093B609CDCF6B
:104CB000FE01E20FF31F8193919322503109398352
:104CC0002883D7CF2091B4093091B509232B41F423
:104CD00020910202309103023093B5092093B40968
:104CE00020910002309101022115310541F42DB7C8
:104CF0003EB74091040250910502241B350BE09110
:104D0000B409F091B509E217F307A0F42E1B3F0B8D
:104D10002817390778F0AC014E5F5F4F241735072D
:104D200048F04E0F5F1F5093B5094093B40981932B
:104D300091939FCFF0E0E0E09CCFCF93DF9300977B
:104D4000E9F0FC01329713821282A091B609B0916A
:104D5000B709ED0130E020E01097A1F42081318106
:104D6000820F931F2091B4093091B5092817390794
:104D700009F061C0F093B509E093B409DF91CF91D8
:104D80000895EA01CE17DF07E8F54A815B819E01AD
:104D900041155105B1F7E901FB83EA834991599126
:104DA000C40FD51FEC17FD0761F480819181029635
:104DB000840F951FE90199838883828193819B8366
:104DC0008A83F0E0E0E012968D919C911397009712
:104DD000B9F52D913C911197CD010296820F931F49
:104DE0002091B4093091B5092817390739F6309761
:104DF00051F51092B7091092B609B093B509A09376
:104E0000B409BCCFD383C28340815181840F951FE5
:104E1000C817D90761F44E5F5F4F88819981480FA9
:104E2000591F518340838A819B81938382832115FB
:104E3000310509F0B0CFF093B709E093B6099ECFE2
:104E4000FD01DC01C0CF13821282D7CF4F925F9257
:104E50006F927F928F929F92AF92BF92CF92DF928A
:104E6000EF92FF920F931F93CF93DF938C010097E4
:104E700099F4CB01DF91CF911F910F91FF90EF90AB
:104E8000DF90CF90BF90AF909F908F907F906F906A
:104E90005F904F900C940126FC01E60FF71F9C01D8
:104EA00022503109E217F30708F4AEC0D901CD91C1
:104EB000DC911197C617D70720F1C530D10578F0DE
:104EC000CE0104978617970750F0C61BD70B229781
:104ED000C193D1936D937C93CF010E949D26C8010D
:104EE000DF91CF911F910F91FF90EF90DF90CF90C6
:104EF000BF90AF909F908F907F906F905F904F90FA
:104F000008955B01AC1ABD0A4C018C0E9D1EA09148
:104F1000B609B091B709512C412CF12CE12C109716
:104F200031F58091B4099091B5098815990509F07A
:104F30005CC04616570608F058C080910002909158
:104F40000102009741F48DB79EB740910402509141
:104F50000502841B950BE817F90708F055C0F0937C
:104F6000B509E093B409F90171836083B8CF8D91DD
:104F70009C91119712966C90129713967C901397B0
:104F8000A815B90559F56C0142E0C40ED11CCA142C
:104F9000DB0420F1AC014A195B09DA01129615977E
:104FA00080F06282738251834083D9016D937C9338
:104FB000E114F10471F0D7011396FC93EE9312976C
:104FC0008ECF22968C0F9D1FF90191838083F30170
:104FD000EFCFF093B709E093B60981CF4816590691
:104FE00008F42C017D01D3019ACFCB010E94012648
:104FF0007C01009749F0AE01B8010E941428C80155
:105000000E949D2687016BCF10E000E068CFFB0176
:10501000DC0104C08D910190801921F44150504071
:10502000C8F7881B990B0895FB01DC0102C00190B1
:105030000D9241505040D8F70895FB01DC018D914D
:10504000019080190110D9F3990B0895FB01DC013F
:1050500001900D920020E1F70895FB015191552335
:10506000A9F0BF01DC014D9145174111E1F759F459
:10507000CD010190002049F04D9140154111C9F337
:10508000FB014111EFCF81E090E0019708950F936C
:105090001F93CF93DF93E091BA09F091BB0923816D
:1050A000EC0110E000E021FD08C00FEF1FEF14C07D
:1050B0001995892B11F00FEF1FEF89916091BA09B3
:1050C0007091BB09DB011896ED91FC918111F0CF35
:1050D0008AE01995892B49F7C801DF91CF911F917B
:1050E0000F91089512E0CFEFD1E000E006C0802FCD
:1050F000FE010E94F2252196011DC030D10780E0FB
:085100000807A9F7F894FFCF9E
:105108000000BE0980000000000000132A0B3130A7
:10511800122B0A2F2E0000000000000000000000E3
:105128000000000000000000030440038603500450
:10513800B7039503A90300000000AA087D08D30956
:105148005A085E026A085B086E616E00696E660046
:105158006F7666000D0A003A00546865726520692A
:1051680073206E6F7420656E6F7567682073706149
:105178006365210D002000726561645F6C69676872
:105188007400726561645F736F756E640072656147
:10519800645F6779726F5F7800726561645F6779D1
:1051A800726F5F7900726561645F6779726F5F7AA9
:1051B80000726561645F74656D70657261747572A3
:1051C8006500726561645F736F6E6172007265611C
:1051D800645F6C696E650073746F7000666F7277D8
:1051E800617264006C656674007269676874006255
:1051F80061636B77617264006C696768745F6F667E
:0E520800660074616E6B5F647269766500000B
:00000001FF
